:100000000C94A0030C94C8030C94C8030C94C8036C
:100010000C94C8030C94C8030C94C8030C94C80334
:100020000C94C8030C94C8030C94D5180C94441970
:100030000C94C8030C94C8030C94C8030C94C80314
:100040000C94C8030C94C8030C94C8030C94C80304
:100050000C94C8030C94C8030C94C8030C94761B2E
:100060000C94C8030C94C8030C94C8030C94C803E4
:100070000C94C8030C94C8030C94C8030C94C803D4
:100080000C94C8030C94C8030C94C8030C94C803C4
:100090000C94C01B0C94C8030C94C8030C94C803A4
:1000A0000C94C8030C94C8030C94C803000000000F
:1000B000003E5B4F5B3E3E6B4F6B3E1C3E7C3E1CEE
:1000C000183C7E3C181C577D571C1C5E7F5E1C0034
:1000D000183C1800FFE7C3E7FF0018241800FFE7EB
:1000E000DBE7FF30483A060E2629792926407F05AE
:1000F0000507407F05253F5A3CE73C5A7F3E1C1CC4
:1001000008081C1C3E7F14227F22145F5F005F5F83
:1001100006097F017F006689956A6060606060946F
:10012000A2FFA29408047E040810207E2010080874
:100130002A1C08081C2A08081E101010100C1E0C7F
:100140001E0C30383E3830060E3E0E060000000011
:100150000000005F00000007000700147F147F14F8
:10016000242A7F2A1223130864623649562050003D
:1001700008070300001C2241000041221C002A1C29
:100180007F1C2A08083E0808008070300008080814
:100190000808000060600020100804023E51494534
:1001A0003E00427F400072494949462141494D3352
:1001B0001814127F1027454545393C4A49493141B9
:1001C000211109073649494936464949291E000087
:1001D00014000000403400000008142241141414DC
:1001E0001414004122140802015909063E415D59C8
:1001F0004E7C1211127C7F494949363E41414122D1
:100200007F4141413E7F494949417F090909013EFA
:10021000414151737F0808087F00417F4100204021
:10022000413F017F081422417F404040407F021C33
:10023000027F7F0408107F3E4141413E7F0909094A
:10024000063E4151215E7F09192946264949493216
:1002500003017F01033F4040403F1F2040201F3FDC
:100260004038403F63140814630304780403615961
:10027000494D43007F4141410204081020004141A3
:10028000417F04020102044040404040000307084F
:100290000020545478407F2844443838444444284B
:1002A000384444287F385454541800087E090218F2
:1002B000A4A49C787F0804047800447D400020407A
:1002C000403D007F1028440000417F40007C0478BE
:1002D00004787C080404783844444438FC18242406
:1002E0001818242418FC7C08040408485454542486
:1002F00004043F44243C4040207C1C2040201C3C03
:100300004030403C44281028444C9090907C4464F9
:10031000544C44000836410000007700000041368C
:10032000080002010204023C2623263C1EA1A16112
:10033000123A4040207A3854545559215555794144
:100340002254547842215554784020545579400C19
:100350001E527212395555555939545454593955FC
:100360005454580000457C410002457D420001453F
:100370007C407D1211127DF0282528F07C545545D3
:10038000002054547C547C0A097F4932494949323F
:100390003A4444443A324A4848303A4141217A3A50
:1003A00042402078009DA0A07D3D4242423D3D401C
:1003B00040403D3C24FF2424487E4943662B2FFCCB
:1003C0002F2BFF0929F620C0887E09032054547979
:1003D000410000447D413048484A32384040227A4A
:1003E000007A0A0A727D0D19317D2629292F2826C7
:1003F0002929292630484D402038080808080808CF
:100400000808382F10C8ACBA2F102834FA00007B27
:10041000000008142A142222142A1408550055003A
:1004200055AA55AA55AAFF55FF55FF000000FF0029
:10043000101010FF00141414FF001010FF00FF1024
:1004400010F010F0141414FC001414F700FF000056
:10045000FF00FF1414F404FC141417101F10101FD5
:10046000101F1414141F00101010F0000000001FC3
:10047000101010101F10101010F010000000FF10CE
:100480001010101010101010FF10000000FF1400CA
:1004900000FF00FF00001F10170000FC04F41414FC
:1004A0001710171414F404F40000FF00F7141414C8
:1004B00014141414F700F7141414171410101F1048
:1004C0001F141414F4141010F010F000001F101F6B
:1004D0000000001F14000000FC140000F010F010D9
:1004E00010FF10FF141414FF141010101F00000050
:1004F00000F010FFFFFFFFFFF0F0F0F0F0FFFFFF54
:100500000000000000FFFF0F0F0F0F0F38444438AA
:1005100044FC4A4A4A347E02020606027E027E02F9
:1005200063554941633844443C04407E201E200604
:10053000027E020299A5E7A5991C2A492A1C4C7241
:1005400001724C304A4D4D303048784830BC625AC8
:10055000463D3E494949007E0101017E2A2A2A2A58
:100560002A44445F444440514A444040444A514034
:100570000000FF0103E080FF000008086B6B0836F5
:1005800012362436060F090F060000181800000066
:100590001010003040FF0101001F01011E00191D55
:1005A0001712003C3C3C3C00000000000000000032
:1005B000240027002A002D0030000000000200095E
:1005C0000F0000030401000C000000000000000008
:1005D000000000000000000000080B000202020002
:1005E00000090400000102020000052400100105BA
:1005F00024010101042402060524060001070581E7
:100600000310004009040100020A0000000705026F
:1006100002400000070583024000000403090412A1
:10062000010002EF02014041233680000101020374
:100630000141726475696E6F204C4C4300417264D5
:1006400075696E6F204C656F6E6172646F0004E0B7
:1006500010021C07123732292D29252B39000103DE
:1006600010E110031D07062E2C292D2E2E373F00DA
:1006700000021013800A298064022A040000007F0F
:100680002B040000009F0F0180961180FFB1030131
:100690002C2DB203012C2DB306012C2D012C2DB4D1
:1006A0000107C003A20284C101C5C2020A00C3023D
:1006B0008A2AC4028AEEC5010E20003601C83A011A
:1006C00005496E697469616C697A65640048656C96
:1006D0006C6F212053543737787820544654205477
:1006E00065737400000000002300260029002C0020
:1006F0002F000408020110408040102040804080FC
:1007000008020401804020100201108010204040A7
:100710002000000000250028002B002E00310004DE
:100720000404040403040502020202040302020298
:1007300002060606060606040402020204040E1D52
:1007400011241FBECFEFDAE0DEBFCDBF13E0A0E083
:10075000B1E0ECE5F0E502C005900D92A631B107DD
:10076000D9F724E0A6E1B3E001C01D92AE33B20791
:10077000E1F713E0C0EAD3E004C02197FE010E9434
:100780000328CF39D107C9F70E94101E0C942C28DA
:100790000C940000FC018091A603882311F13FB75F
:1007A000F89482E08093E9002091F200822F90E09B
:1007B0001816190614F481E090E0882339F028987F
:1007C00044E64093A5034091F1004083222339F091
:1007D0002091F200211103C02BE62093E8003FBFD7
:1007E00008958FEF9FEF08952FB7F89483E08093DB
:1007F000E9009091E800892F807295FF04C09091E4
:10080000F20080E4891B2FBF089580919D03811120
:100810000DC082E08093990384E080939A03109244
:100820009C0310929B0381E080939D0389E993E0F0
:10083000089540918F035091900320918D03309142
:100840008E0342175307B4F49091E8009570E1F3DA
:100850009091E80092FD19C08093F10080918F0380
:100860009091900301968F739927892B19F48EEF3D
:100870008093E80080918F0390919003019690936C
:10088000900380938F0381E0089580E00895DF92C4
:10089000EF92FF920F931F93CF93DF93D82E8A018D
:1008A000EB017B01E40EF51ECE15DF0559F0D7FEF6
:1008B00012C0FE0184910E94190421968111F4CF87
:1008C0000FEF1FEFC801DF91CF911F910F91FF90A4
:1008D000EF90DF9008958881EECF0F931F93CF9311
:1008E000DF931F92CDB7DEB782E0898342E450E008
:1008F00069ED75E080E80E9447040E940504DC0170
:1009000012960D911C910115110589F0D801ED91F8
:10091000FC910280F381E02DBE016F5F7F4FC80123
:10092000099597FD04C0F80100851185ECCF8981F8
:100930000F90DF91CF911F910F910895615030F08A
:100940002091F100FC0120830196F8CF289884E6DD
:100950008093A5030895AF92BF92CF92DF92EF925A
:10096000FF920F931F93CF93DF936C017B018B0159
:10097000040F151FEB015E01AE18BF08C017D107A9
:1009800059F06991D601ED91FC910190F081E02D33
:10099000C6010995892B79F7C501DF91CF911F9188
:1009A0000F91FF90EF90DF90CF90BF90AF900895A0
:1009B000CF93DF931F92CDB7DEB76983DC01ED9152
:1009C000FC910280F381E02D41E050E0BE016F5FB9
:1009D0007F4F09950F90DF91CF9108950F931F934B
:1009E000CF93DF938C01D0E0C0E0F801EC0FFD1F46
:1009F0006491662341F087EA93E00E94D804892B32
:100A000011F02196F2CFCE01DF91CF911F910F917E
:100A1000089583E08093E9008091F200882319F023
:100A20008AE38093E80008950E94F40390E008951B
:100A3000CF93DF931F92CDB7DEB7FC0184859585F8
:100A400097FD08C02FEF3FEF358724870F90DF9188
:100A5000CF910895CE0101960E94CA03019719F41F
:100A6000898190E0F3CF8FEF9FEFF0CF0F931F932B
:100A7000CF93DF931F92CDB7DEB78C01FC01848545
:100A8000958597FF0BC0CE0101960E94CA0301977E
:100A900071F4898190E0F80195878487F801848555
:100AA00095850F90DF91CF911F910F9108958FEF52
:100AB0009FEFF1CFFC018485958597FD0BC09FB713
:100AC000F89482E08093E9008091F2009FBF90E06B
:100AD000019608959FB7F89482E08093E900809191
:100AE000F2009FBF90E00895282F30E0F901E6540E
:100AF000FA4F9491F901EE50F94F8491215E384FED
:100B0000F9012491222309F430C09923E9F091508E
:100B10009F30D0F4E92FF0E0E057FA4F0C9403280F
:100B2000BE05C2059F05B605BA05A405A405A40522
:100B3000C505CB05CF05D305D905A405DD059091E5
:100B400080009F7790938000E22FF0E0EE0FFF1F70
:100B5000EF5EF84FA591B4919FB7F894EC916111B5
:100B600032C080958E238C939FBF08959091800012
:100B70009F7DE8CF90918000977FE4CF94B59F77D9
:100B800094BDE2CF94B59F7DFBCF909190009F776D
:100B900090939000D9CF909190009F7DF9CF909144
:100BA0009000977FF5CF9091C0009F779093C00001
:100BB000CBCF9091C0009F7DF9CF9091C200977FDD
:100BC0009093C200C1CF8E2BCECFCF93DF9390E016
:100BD000FC01EE50F94F2491815E984FFC01849105
:100BE0008823D1F090E0880F991FFC01E455FA4F5B
:100BF000A591B491FC01EF5EF84FC591D4916111BC
:100C00000EC09FB7F8948C91E22FE0958E238C93C1
:100C10002881E223E8839FBFDF91CF9108958FB7AA
:100C2000F894EC91E22BEC938FBFF6CF3FB7F8949A
:100C30008091890390918A03A0918B03B0918C03DA
:100C400026B5A89B05C02F3F19F00196A11DB11D27
:100C50003FBFBA2FA92F982F8827BC01CD01620F63
:100C6000711D811D911D42E0660F771F881F991F1E
:100C70004A95D1F708958F929F92AF92BF92CF92EB
:100C8000DF92EF92FF926B017C010E9416064B01EE
:100C90005C01C114D104E104F104B9F00E9416060C
:100CA000681979098A099B09683E73408105910595
:100CB00080F321E0C21AD108E108F10888EE880E1D
:100CC00083E0981EA11CB11CE4CFFF90EF90DF9051
:100CD000CF90BF90AF909F908F9008958F929F92EA
:100CE000AF92BF92CF92DF92EF92FF920F931F933A
:100CF000CF93DF936C017B018A0180910B018823E4
:100D000009F45CC08091A603882309F457C0809140
:100D1000930380FF05C08091E00082608093E00033
:100D2000E801B12C8AEFA82E93E0892E2AE3922EB7
:100D3000209711F4BB20D9F10E94F40381110AC05D
:100D4000AA94AA20D9F161E070E080E090E00E94CE
:100D50003B06EECF8C171D0611F00CF08C2F9FB7C1
:100D6000F8948092E9002091E80025FD02C09FBF21
:100D7000DFCF282F30E0C21BD30BF701815020F0CA
:100D800041914093F100FACFE20EF31EBB2021F017
:100D90009092E800B12CEBCF8091E80085FDE7CF81
:100DA0009092E800BB24B394209709F3F3CF5D98A9
:100DB00084E680939203101611063CF081E090E0E7
:100DC000F6019383828310E000E0C801DF91CF91A8
:100DD0001F910F91FF90EF90DF90CF90BF90AF9059
:100DE0009F908F90089520913E03260F3327331F45
:100DF00021323105ECF420916203FC0190E080E0A7
:100E0000243069F082E00895A0913E032191AC0165
:100E1000425E5C4FA40FB52FB11D2C93019686172F
:100E200098F380913E03680F60933E0380E008953D
:100E300081E0089508958FEF9FEF08958FEF9FEF62
:100E400008958091170390E09195819591090895F7
:100E5000CF93DF93CB01EA01642F0E94F306CE010A
:100E6000DF91CF910895CF93DF931F92CDB7DEB777
:100E7000698361E0CE0101960E94F30681E090E073
:100E80000F90DF91CF910895FC01A5A1B6A18C919F
:100E900092A589238C93A5A1B6A18C9191A5892BAC
:100EA0008C930895DC019396ED91FC919497908139
:100EB00098968C91892380830895DC019396ED9117
:100EC000FC919497908197968C91892B80830895BB
:100ED000DC019196ED91FC919297908196968C9180
:100EE000892380830895DC019196ED91FC9192977E
:100EF000908195968C91892B80830895CF92DF9273
:100F0000EF92FF921F93CF93DF93EC016A017B0175
:100F10008DA9811123C08F2D9927AA27BB278EBDAC
:100F20000DB407FEFDCFC701AA27BB278EBD0DB4A8
:100F300007FEFDCFBB27AF2D9E2D8D2D8EBD0DB491
:100F400007FEFDCFCEBC0DB407FEFDCFDF91CF91E4
:100F50001F91FF90EF90DF90CF9008958130B1F412
:100F600010E2CE01F7FE0FC00E947307CE010E946F
:100F70005D07CE010E945207CC0CDD1CEE1CFF1C4D
:100F8000115079F7E3CF0E946807F0CFEF8DF8A1F9
:100F90008F2D9927AA27BB278083CE010E94440763
:100FA000EF8DF8A1C701AA27BB278083CE010E943D
:100FB0004407EF8DF8A1BB27AF2D9E2D8D2D80838B
:100FC000CE010E944407EF8DF8A1C082CE01DF91CF
:100FD000CF911F91FF90EF90DF90CF900C9444073A
:100FE000FF920F931F93CF93DF93EC018B018DA999
:100FF00081110EC01EBD0DB407FEFDCF0EBD0DB498
:1010000007FEFDCFDF91CF911F910F91FF900895C3
:101010008130B1F490E1F92ECE0117FF0EC00E948D
:101020007307CE010E945D07CE010E945207000F98
:10103000111FFA94F110F0CFE5CF0E946807F1CFAD
:10104000EF8DF8A11083CE010E944407EF8DF8A127
:101050000083CE01DF91CF911F910F91FF900C94EF
:1010600044070F931F93CF93DF93EC01162F8DA9A5
:10107000811109C06EBD0DB407FEFDCFDF91CF9188
:101080001F910F910895813099F408E0CE0117FF68
:101090000CC00E947307CE010E945D07110FCE01A4
:1010A0000E945207015091F7E9CF0E946807F3CFE1
:1010B000EF8DF8A16083CE01DF91CF911F910F9149
:1010C0000C944407CF93DF93EC01ED8DFE8D80816E
:1010D0009CA989238083CE010E943108ED8DFE8D6D
:1010E00080819BA9892B8083DF91CF9108958F9276
:1010F0009F92AF92BF92CF92DF92EF92FF920F93A7
:101100001F93CF93DF93EC0189AD9AAD680F791FE0
:101110008BAD9CAD480F591F21503109260F371F49
:101120004901B12CA12CCB01B0E0A0E0DC01992752
:101130008827882A992AAA2ABB2A680181E0C81A26
:10114000D108C40ED51EF12CE12C70E060E0BA018C
:1011500055274427C42AD52AE62AF72A6AE2CE016F
:101160000E946208B501A401CE010E947E076BE2D5
:10117000CE010E946208B701A601CE010E947E073F
:101180006CE2CE01DF91CF911F910F91FF90EF9014
:10119000DF90CF90BF90AF909F908F900C9462089B
:1011A000FC0185A9811104C091A182A19CBD8DBDC6
:1011B00008951F93CF93DF93EC01162FE881F981F7
:1011C0000284F385E02D0995112371F06DADCE01F8
:1011D0000E946208E881F9810688F789E02DCE0136
:1011E000DF91CF911F9109946EADF1CFAF92BF9275
:1011F000CF92DF92EF92FF920F931F93CF93DF93E3
:10120000EC0177FD38C088859985681779079CF5CA
:1012100057FD31C08A859B854817590764F56901D8
:101220007A015B01E881F9810284F385E02DCE012A
:101230000995E881F98102A4F3A5E02D01E010E011
:1012400021E030E0A701B501CE010995B601CE013C
:101250000E94F007E881F9810688F789E02DCE0128
:10126000DF91CF911F910F91FF90EF90DF90CF9082
:10127000BF90AF900994DF91CF911F910F91FF9094
:10128000EF90DF90CF90BF90AF9008958F929F9294
:10129000AF92BF92CF92DF92EF92FF920F931F9384
:1012A000CF93DF93EC0149015701E881F98102A452
:1012B000F3A5E02D09959401D8010E9409286B013E
:1012C0007C01C114D104E104F10409F47DC08DA9AD
:1012D000811115C081E0C81AD108E108F1088FEF2B
:1012E000C816D806E806F80609F46EC0BEBC0DB4F0
:1012F00007FEFDCFAEBC0DB407FEFDCFEBCF8130B6
:1013000099F581E0C81AD108E108F1088FEFC816F5
:10131000D806E806F80609F457C00B2D18E0CE01F0
:1013200007FF1CC00E947307CE010E945D07CE011B
:101330000E945207000F115091F70A2D18E0CE01BC
:1013400007FF0FC00E947307CE010E945D07CE0108
:101350000E945207000F115091F7D3CF0E946807E7
:10136000E3CF0E946807F0CFBA1016C0CC0CDD1C8A
:10137000EE1CFF1CEF8DF8A1B08281E0C81AD108E5
:10138000E108F1088FEFC816D806E806F806E1F084
:10139000CE010E944407F1CF81E0C81AD108E108CC
:1013A000F1088FEFC816D806E806F80669F0EF8D49
:1013B000F8A1B082CE010E944407EF8DF8A1A0826F
:1013C000CE010E944407E8CFDF91CF911F910F918A
:1013D000FF90EF90DF90CF90BF90AF909F908F9055
:1013E00008958F929F92AF92BF92CF92DF92EF9229
:1013F000FF920F931F93CF93DF935C014B016A0120
:10140000E90177FD52C0DC0118968D919C91681717
:1014100079070CF04AC0209709F447C037FF07C08E
:10142000C9010196C80ED91ED195C195D109F50102
:1014300082859385C816D906C4F5A6014C0F5D1F99
:101440009A012150310937FD30C0D7FE03C0EA01AF
:10145000D12CC12C281739071CF0EC01CC19DD095F
:10146000D501ED91FC910284F385E02DC50109952C
:1014700078018E0121E030E0A601B401C5010E948F
:101480004609D501ED91FC910688F789E02DC5014B
:10149000DF91CF911F910F91FF90EF90DF90CF9050
:1014A000BF90AF909F908F900994DF91CF911F9143
:1014B0000F91FF90EF90DF90CF90BF90AF909F90F3
:1014C0008F9008958F929F92AF92BF92CF92DF92AA
:1014D000EF92FF920F931F93CF93DF935C016B0109
:1014E0004A01E90157FD52C0DC011A968D919C9189
:1014F000481759070CF04AC0209709F447C037FF36
:1015000007C0C9010196C80ED91ED195C195D10950
:10151000F50180859185C816D906C4F5A6014C0F42
:101520005D1F9A012150310937FD30C0D7FE03C03D
:10153000EA01D12CC12C281739071CF0EC01CC1979
:10154000DD09D501ED91FC910284F385E02DC50103
:101550000995780101E010E09E01A401B601C501E2
:101560000E944609D501ED91FC910688F789E02D8E
:10157000C501DF91CF911F910F91FF90EF90DF9008
:10158000CF90BF90AF909F908F900994DF91CF91B3
:101590001F910F91FF90EF90DF90CF90BF90AF9091
:1015A0009F908F9008958F929F92AF92BF92CF920B
:1015B000DF92EF92FF920F931F93CF93DF934C0133
:1015C0006B015A01E901209709F46CC0011511055E
:1015D00009F468C037FF07C0C9010196C80ED91EBB
:1015E000D195C195D109F401A085B185CA16DB0654
:1015F0000CF058C017FF07C0C8010196A80EB91E0D
:10160000119501951109F40182859385A816B906F3
:101610000CF048C0F601EC0FFD1FAF01415051091D
:1016200057FD40C0B501600F711F9B01215031096A
:1016300037FD38C0D7FE03C0EF01D12CC12CB7FE57
:1016400003C08B01B12CA12C4A175B071CF0ED01E4
:10165000CC19DD09281739071CF08C010A191B0960
:10166000D401ED91FC910284F385E02DC40109952C
:101670009E01A501B601C4010E944609D401ED9165
:10168000FC910688F789E02DC401DF91CF911F916D
:101690000F91FF90EF90DF90CF90BF90AF909F9011
:1016A0008F900994DF91CF911F910F91FF90EF9050
:1016B000DF90CF90BF90AF909F908F900895EF9262
:1016C000FF920F931F93CF93DF9377FD32C0DC011E
:1016D0001896ED91FC916E177F075CF52115310589
:1016E00041F137FF07C0F90131964E0F5F1F319569
:1016F00021953109DC011A96ED91FC914E175F0797
:10170000C4F4EA01C20FD31FDE011197B7FD11C067
:1017100057FF03C09E0150E040E0AE17BF071CF02A
:101720009F01241B350B7801890121E030E00E94E4
:101730004609DF91CF911F910F91FF90EF9008958F
:101740002F923F924F925F926F927F928F929F92D1
:10175000AF92BF92CF92DF92EF92FF920F931F93BF
:10176000CF93DF93CDB7DEB72C970FB6F894DEBFDB
:101770000FBECDBF3C017C836B835C874B87180118
:10178000270181E090E05C01A41AB50ACA01919595
:1017900081959109AC01440F551F5A834983C801B3
:1017A00001969E838D83F12CE12C88248394912CC7
:1017B000922F91709F8322702887AB014F5F5F4FFC
:1017C0005A8749878B859C85E816F9060CF07AC004
:1017D000CB84DC84B7FC0CC06C0191E0C91AD10841
:1017E00049815A814E5F5F4F5A834983A40EB51ECB
:1017F0005FEFE51AF50A82E0880E911CA80CB91C6F
:10180000CE14DF0464F19F81992399F09601220F91
:10181000331F4D815E81240F351F82014B815C8116
:101820004C195D09B701660D771D87EF93E00E94A3
:101830005F0B5885552399F09601220F331F8D8138
:101840009E81280F391F82014B815C814C195D09F3
:10185000B3016E197F0987EF93E00E945F0B4B8500
:101860005C854C155D0559F15F81552391F094011C
:1018700022503109220D331D820149855A854E19A6
:101880005F096B857C85660D771D87EF93E00E946D
:101890005F0B8885882399F0940122503109220D2D
:1018A000331DB3014B855C85641B750B8201498533
:1018B0005A854E195F0987EF93E00E945F0BDC8623
:1018C000CB8680CF2C960FB6F894DEBF0FBECDBF6F
:1018D000DF91CF911F910F91FF90EF90DF90CF900C
:1018E000BF90AF909F908F907F906F905F904F9040
:1018F0003F902F900895EF92FF920F931F93CF93F5
:10190000DF9357FD31C0DC011A96ED91FC914E1723
:101910005F0754F52115310539F137FF07C0F9018B
:1019200031966E0F7F1F319521953109DC01189694
:10193000ED91FC916E177F07BCF4EB01C20FD31F32
:10194000DE011197B7FD10C077FF03C09E0170E064
:1019500060E0AE17BF071CF09F01261B370B780114
:1019600001E010E00E944609DF91CF911F910F9195
:10197000FF90EF9008958F929F92AF92BF92CF9277
:10198000DF92EF92FF920F931F93CF93DF93470164
:101990002115310509F44BC00115110509F447C0A3
:1019A00037FF07C0F90131966E0F7F1F31952195E2
:1019B0003109DC011896AD90BC906A157B05BCF529
:1019C00017FF07C0F80131964E0F5F1F1195019563
:1019D0001109DC011A96ED91FC914E175F073CF559
:1019E0006B01C20ED31EE6012197D7FD20C07A01FC
:1019F000E00EF11ED7011197B7FD19C077FF03C0A4
:101A0000960170E060E057FF03C0870150E040E0BE
:101A1000CA15DB051CF09501261B370BAE17BF0757
:101A20001CF08F01041B150B74010E944609DF9105
:101A3000CF911F910F91FF90EF90DF90CF90BF90CB
:101A4000AF909F908F900895EF92FF920F931F9306
:101A5000CF93DF93EC0177FD22C0888599856817C5
:101A60007907ECF457FD1BC08A859B8548175907F9
:101A7000B4F47901E881F98102A4F3A5E02D01E035
:101A800010E021E030E0CE010995B701CE01DF91F1
:101A9000CF911F910F91FF90EF900C94F007DF9181
:101AA000CF911F910F91FF90EF9008952F923F9249
:101AB0004F925F926F927F928F929F92AF92BF925E
:101AC000CF92DF92EF92FF920F931F93CF93DF930A
:101AD00000D000D0CDB7DEB76C015B015C834B83D7
:101AE00081E090E04C01841A950A2A0151944194B6
:101AF0005108440C551CF12CE12C66246394712C84
:101B0000422F44704983522F52705A83822F88701B
:101B1000282E2170322E4B815C81E416F5060CF0E4
:101B200083C097FC09C0415051095C834B8352E04C
:101B3000450E511C840C951C8FEFE81AF80A92E0B0
:101B4000690E711C860C971C49814423C1F09801D1
:101B50004B815C814A0D5B1DB6016E0D7F1D87EFC9
:101B600093E00E94240D9801A5014E0D5F1D6B812D
:101B70007C816C0D7D1D87EF93E00E94240D5A81BE
:101B80005523C9F09801A5018B819C81481B590BF5
:101B9000B6016E0D7F1D87EF93E00E94240D980122
:101BA000A5014E195F096B817C816C0D7D1D87EF4E
:101BB00093E00E94240D2220C9F09801A5014E0D4A
:101BC0005F1DB6018B819C81681B790B87EF93E0C9
:101BD0000E94240D98014B815C814A0D5B1DB6016A
:101BE0006E197F0987EF93E00E94240D332009F4DA
:101BF00092CF9801A5014E195F09B6018B819C8196
:101C0000681B790B87EF93E00E94240D9801A501D2
:101C10008B819C81481B590BB6016E197F0987EF98
:101C200093E00E94240D77CF0F900F900F900F90AC
:101C3000DF91CF911F910F91FF90EF90DF90CF90A8
:101C4000BF90AF909F908F907F906F905F904F90DC
:101C50003F902F900895CF93DF93EC010E94D0081E
:101C60008FA987FD06C0EB8DFC8D80819AA9892301
:101C70008083DF91CF9108950895AF92BF92CF9264
:101C8000DF92EF92FF920F931F93CF93DF93BC01EC
:101C90006F5F7F4FFC011491115008F47AC0FB0173
:101CA000D4917B01F2E0EF0EF11CFB01319604911F
:101CB000C02FCF7787EF93E00E94D00880912E0449
:101CC00087FD09C0E0911204F09113048081909186
:101CD000290489238083E0911404F0911504808104
:101CE00090912B04892380836D2F87EF93E00E94CE
:101CF0003108E0911404F0911504808190912A0438
:101D0000892B8083F701B12CA12CD0E0AC16BD0645
:101D1000F4F480912C046F01823081F480912704C7
:101D2000882361F0619171916F0187EF93E00E94C8
:101D3000F007EFEFAE1ABE0AF601E8CF8FEFC81A30
:101D4000D80A649187EF93E00E943108F2CF809126
:101D50002E0487FD09C0E0911204F09113048081E4
:101D600090912804892B8083B7016C0F7D1F07FF9A
:101D700093CFEB012196FB01649170E06F3F7105F9
:101D800011F464EF71E090E080E00E943B06BE0138
:101D900083CFDF91CF911F910F91FF90EF90DF9054
:101DA000CF90BF90AF9008950F931F93CF93DF9381
:101DB000EC018B010E94D0088FA987FD06C0EB8D36
:101DC000FC8D80819AA989238083ED8DFE8D808191
:101DD0009CA98923808366E3CE010E943108ED8DA2
:101DE000FE8D80819BA9892B80838DA9F80182308B
:101DF00091F06081CE010E9431088FA987FD06C055
:101E0000EB8DFC8D808199A9892B8083DF91CF9107
:101E10001F910F91089588A9882359F360817181DA
:101E2000CE010E94F007E9CFCF93DF931F92CDB789
:101E3000DEB7FC0119826370668BDC01AD5BBF4FBE
:101E40002C9130E011968C9190E0623031F063304B
:101E5000C9F0613081F040EC498332AF21AF94AFDB
:101E600083AFBE016F5F7F4FCF010E94D40E0F90F2
:101E7000DF91CF91089540EA498334AF23AF92AF09
:101E800081AFEFCF40E6F8CFCF93DF931F92CDB76E
:101E9000DEB7FC0119826370668BDC01AA5BBF4F61
:101EA0008C91982F9B7FAF014C5B5F4F913031F449
:101EB00093E0623008F091E0DA019C939F012D5B82
:101EC0003F4F623009F44CC0633009F459C06130AF
:101ED00069F1823021F098EC843009F046C090EC32
:101EE00099838130D1F480E890E09387828791874D
:101EF0008087D9018C9190E092AF81AFDA018C910B
:101F000090E094AF83AFBE016F5F7F4FCF010E941F
:101F1000D40E0F90DF91CF910895843051F580EA6F
:101F200090E09387828780E590E0E1CF823019F0DE
:101F300098EA843061F590EA9983813091F580E8E0
:101F400090E09187808793878287D9018C9190E078
:101F500094AF83AFDA018C9190E092AF81AFD3CF91
:101F6000823039F08430D9F298E09983813009F4D5
:101F7000BACF80EA90E09387828780E890E0B7CF7D
:101F8000823019F098E6843011F490E6D5CF998329
:101F90008130A9F280EA90E09187808780E890E024
:101FA000D2CF8430B9F780EA90E09187808780E5CE
:101FB00090E0C9CFFC0187A987FD06C0A38DB48D31
:101FC0009C9181A9892B8C9308954F925F926F9277
:101FD0007F92AF92BF92CF92DF92EF92FF920F93D8
:101FE0001F93CF93DF935C0187EF93E00E942B0E4A
:101FF000C12CD12C7601C4E1D0E094E1492E512CC2
:10200000612C712CC701B601A30192010E94E42743
:1020100080E3C80ED11CE11CF11C2F5F3F4F8501EE
:10202000AE016AE270E087EF93E00E947B0C21969C
:10203000C832D10539F7C12CD12C7601C8E2D0E0E5
:1020400084E1482E512C612C712CC701B601A301EB
:1020500092010E94E42780E3C81AD108E108F10840
:102060002F5C3F4F8501AE016AE270E087EF93E09D
:102070000E947B0C2196CD33D10539F787EF93E091
:10208000DF91CF911F910F91FF90EF90DF90CF9054
:10209000BF90AF907F906F905F904F900C94DA0F4D
:1020A0002F923F924F925F926F927F928F929F9268
:1020B000AF92BF92CF92DF92EF92FF920F931F9356
:1020C000CF93DF9300D000D0CDB7DEB71C015B010A
:1020D0002A013C832B83680187EF93E00E942B0E3B
:1020E0003801660C771CC801820D931D9A83898381
:1020F0009201261937090B811C81A501BC0187EFCC
:1021000093E00E94BB0C8B819C81861997090197F3
:102110009C838B83AC0CBD1C420C531CC2018C19DC
:102120009D090B811C8121E0A601B50101970E9448
:10213000A00B0B811C8122E0A601B50189819A8147
:102140000E94A00B87EF93E00F900F900F900F90DD
:10215000DF91CF911F910F91FF90EF90DF90CF9083
:10216000BF90AF909F908F907F906F905F904F90B7
:102170003F902F900C94DA0F0895FC016370668BEA
:102180008481958126813781613039F0633029F06F
:1021900091878087338722870895318720879387A7
:1021A000828708952F923F924F925F926F927F9213
:1021B0008F929F92AF92BF92CF92DF92EF92FF9257
:1021C0000F931F93CF93DF93CDB7DEB76A970FB608
:1021D000F894DEBF0FBECDBF9A8F898F7A83698353
:1021E0004A01D22E18870F833701BC2CDC01599687
:1021F0002D913C915A972115310509F015C118967A
:102200008D919C911997681779070CF0D7C11A9690
:102210008D919C91481759070CF0D0C14C2C512C32
:10222000B6E0CB9E600D711D11247C876B8716165E
:1022300017060CF0C3C1EA2DF0E0FA87E98793E0B6
:10224000EE0FFF1F9A95E1F7F88BEF87CF01840F10
:10225000951F181619060CF0B1C1A98DBA8D5896A4
:102260008C91811104C0BFEABD1508F4D394A98DE7
:10227000BA8DED91FC9111970284F385E02DCD018B
:102280000995B5E0DB9EC0011124E981FA81FC8348
:10229000EB83312C212C9C0124553F4F388F2F8B01
:1022A0004A2D50E05E8B4D8BEF89F88DE20DF31DCA
:1022B00044919E828D82D12CC12C69817A81620DDC
:1022C000731D7A8B698B842F90E09C8B8B8BE98DAF
:1022D000FA8DA081B18140FF82C0F1E0BF126FC0D2
:1022E000AF126DC01C96ED91FC912F813885A40131
:1022F0004C0D5D1D69897A89898D9A8D0995EB89C7
:10230000FC89F595E7954E2F5FEFC51AD50A6D81CB
:102310007E818D899E89680F791F7E836D8398E009
:10232000C916D10481F6AFEF2A1A3A0AEB81FC8173
:10233000E40DF51DFC83EB83F5E02F16310409F065
:10234000B3CF2F81388526153705B9F0A98DBA8D01
:10235000ED91FC91B1E0BB1257C0AB1255C0698141
:102360007A816B5F7F4F0088F189E02D830128E03F
:1023700030E0A401898D9A8D0995A98DBA8DED91D2
:10238000FC9111970688F789E02DCD016A960FB66A
:10239000F894DEBF0FBECDBFDF91CF911F910F919B
:1023A000FF90EF90DF90CF90BF90AF909F908F9075
:1023B0007F906F905F904F903F902F9009941E9662
:1023C000ED91FC91EF80F88409851A8592014D8189
:1023D0005E816B817C81898D9A8D099590CF2F814B
:1023E00038852615370509F48ACF31E0B31207C0C6
:1023F000A31205C01C96ED91FC91930178CF1E9617
:10240000ED91FC917301E0CF6B857C8564197509B2
:102410000684F785E02D73010F8518899201A401C8
:10242000898D9A8D0995A9CFF901349694913297A7
:1024300045915491D91AB7E0DB9E400D511D1124EE
:10244000F901259134913C8B2B8BFA012590349026
:10245000FA013296749031963491398B32966490A9
:102460003196449041E04C1518F04A1508F07FC0B1
:10247000662D062C000C770B7C836B83842D042C3B
:10248000000C990B9E838D83A98DBA8DED91FC91E3
:1024900011970284F385E02DCD010995512CD12CA3
:1024A000C12CEA2DF0E0FA87E9872B2D30E03C873C
:1024B0002B87A401440D511D47FC5A95588F4F8B13
:1024C00069817A81660D711D67FC7A957E876D87BB
:1024D0007989C71608F051CF2C2D30E04D815E81EF
:1024E000420F531FA985BA854A9FC0014B9F900D8B
:1024F0005A9F900D1124FC01E80DF91DF88BEF8710
:10250000852D612C4F89588D420F531F5E8B4D8B4B
:10251000671408F050C044244394480E877041F477
:10252000C1010196EB89FC89E20DF31DD4901C01D9
:10253000D7FE19C0A98DBA8DED91FC91662D70E082
:10254000B1E0BB1219C0AB1217C02D853E85620FDA
:10255000731F0484F585E02D2F8138854D895E89B0
:10256000898D9A8D0995DD0C6394842DD1CF1E82BF
:102570001D821C821B8288CF4B815C81640F751F7A
:10258000AB85BC856A9FC0016B9F900D7A9F900DB3
:10259000112469817A81680F791F0684F785E02DFF
:1025A000EF80F88409851A859D014F855889898DAA
:1025B0009A8D0995D8CF570CC3948ACF6A960FB6D7
:1025C000F894DEBF0FBECDBFDF91CF911F910F9169
:1025D000FF90EF90DF90CF90BF90AF909F908F9043
:1025E0007F906F905F904F903F902F9008958F92C3
:1025F0009F92AF92CF92EF92FF920F931F93CF9340
:10260000DF93EC01262F898D9A8D009709F051C038
:102610006A30D1F41D861C868D8948E0849F900124
:1026200011248E859F85820F931F9F878E8781E05F
:1026300090E0DF91CF911F910F91FF90EF90CF909D
:10264000AF909F908F9008956D3089F3CC88AD88BE
:102650008F898823C1F08C859D8536E0C39E800DCF
:10266000911D1124488559854817590764F44E85F2
:102670005F851D861C8638E0A39EC0011124840F4F
:10268000951F9F878E87EA88FB88088919894E8560
:102690005F856C857D85CE010E94D2102C898C854A
:1026A0009D8546E0249F800D911D11249D878C8778
:1026B000BECF6A3069F41D861C86FC013896E49111
:1026C0002D898E859F85E29F800D911D1124ADCFB0
:1026D0006D3009F4ACCFFC0134963491631708F4E3
:1026E000A6CF3296E491E61708F4A1CFFC0132960A
:1026F00085909490462F431B342F47E0349F800CE5
:10270000911C1124F401329634913196E4913323D3
:10271000A9F1EE2399F1CC88F4013596E491AD88C6
:102720004F89442301F10E2E000CFF0BE30FF11D26
:10273000CE9EA001CF9E500D11246C857D85460F45
:10274000571F68857985641775076CF44E855F851A
:102750001D861C86FC013896E491AE9E400D511DED
:1027600011245F874E87EA88FB88088919894E857E
:102770005F856C857D85CE010E94D210F401349670
:10278000E4912C898C859D85E29F800D911D1124FB
:102790008DCF6F927F928F929F92AF92BF92CF9286
:1027A000DF92EF92FF920F931F93CF93DF93EC0191
:1027B0006B015A0139014801E881F9810284F385EE
:1027C000E02D0995E881F9810288F389E02D8701E0
:1027D0009301A501B601CE010995A501480D591D2A
:1027E00041505109E881F9810288F389E02D930174
:1027F000B601CE010995E881F9810088F189E02DC3
:102800009401A501B601CE010995C60CD71CB601ED
:1028100061507109E881F9810088F189E02D940106
:10282000A501CE010995E881F9810688F789E02D97
:10283000CE01DF91CF911F910F91FF90EF90DF902C
:10284000CF90BF90AF909F908F907F906F900994A2
:102850006F927F928F929F92AF92BF92CF92DF92B0
:10286000EF92FF920F931F93CF93DF935C01EB01E5
:102870006A01490138018701DC01ED91FC91621781
:10288000730719F5641675062CF0962D872D3A01FD
:10289000C92ED82E9601261937092F5F3F4F048C79
:1028A000F58DE02DA301BE01C5010995DF91CF9102
:1028B0001F910F91FF90EF90DF90CF90BF90AF905E
:1028C0009F908F907F906F9008954615570591F4D3
:1028D0002617370724F0892D4B01C22FD82F9E01D0
:1028E000281939092F5F3F4F068CF78DE02DA6017F
:1028F000B401DACF0284F385E02D0995D501ED917D
:10290000FC910488F589E02D83019401A601BE01A4
:10291000C5010995D501ED91FC910688F789E02D57
:10292000C501DF91CF911F910F91FF90EF90DF9044
:10293000CF90BF90AF909F908F907F906F900994B1
:10294000EF92FF920F931F93DC011A960D911C9149
:102950001B9718962D913C911997ED91FC9100A031
:10296000F1A1E02D7B0150E040E070E060E00995CE
:102970001F910F91FF90EF9008954F925F926F9289
:102980007F928F929F92AF92BF92CF92DF92EF92FF
:10299000FF920F931F93CF93DF936C012B015A018A
:1029A00039014801DC01ED91FC910284F385E02DB1
:1029B0000995E201640C751CD601ED91FC91C615D8
:1029C000D7055CF40088F189E02D87019401A50109
:1029D000BE01C60109952196EFCF0688F789E02D43
:1029E000C601DF91CF911F910F91FF90EF90DF9083
:1029F000CF90BF90AF909F908F907F906F905F909F
:102A00004F9009948F929F92AF92BF92CF92DF9294
:102A1000EF92FF920F931F93CF93DF93EC015B0133
:102A20004A016901E881F9810284F385E02D099565
:102A300095012C0D3D1D21503109E881F981048853
:102A4000F589E02D78018401A401B501CE01099535
:102A5000E881F9810688F789E02DCE01DF91CF91D9
:102A60001F910F91FF90EF90DF90CF90BF90AF90AC
:102A70009F908F9009948F929F92AF92BF92CF9226
:102A8000DF92EF92FF920F931F93CF93DF93EC01AE
:102A90005B014A0169017801E881F9810284F385CB
:102AA000E02D0995C80CD91C860101501109E88157
:102AB000F9810488F589E02D9501A401B501CE01C5
:102AC0000995E881F9810688F789E02DCE01DF912B
:102AD000CF911F910F91FF90EF90DF90CF90BF901B
:102AE000AF909F908F900994EF92FF920F931F9356
:102AF000DC01ED91FC9100A0F1A1E02D09951F9161
:102B00000F91FF90EF9008950F931F93DC01ED91CB
:102B1000FC91068CF78DE02D09951F910F9108957A
:102B20000F931F93DC01ED91FC91048CF58DE02D4A
:102B300009951F910F910895DC01ED91FC9100849E
:102B4000F185E02D09942F923F924F925F926F9200
:102B50007F928F929F92AF92BF92CF92DF92EF922D
:102B6000FF920F931F93CF93DF9300D000D000D03C
:102B7000CDB7DEB73C016A013E832D83FC82EB8238
:102B80005801A41AB50AB7FE03C0B194A194B108C4
:102B90008D809E80861A970A97FE03C09194819437
:102BA00091088A149B045CF0902F812F0D811E8167
:102BB0009D838E839C2D8D2D6B01692F782F0C1595
:102BC0001D055CF09D818E817E836D83692F782F3A
:102BD000902F812F8601C92ED82E1601201A310A76
:102BE0002B012D813E81421A530A57FE03C0519496
:102BF00041945108710137FE03C03FEFE31AF30A15
:102C0000F594E7948D819E81861797075CF5A1E086
:102C1000B0E0BA83A983C016D1064CF1D301ED917F
:102C2000FC910484F585E02D2B813C81A8016D8108
:102C30007E818A149B041CF04D815E81B801C30122
:102C40000995E418F508F7FE0AC02D813E818981B7
:102C50009A81280F391F3E832D83E20CF31C0F5FEE
:102C60001F4FD9CF2FEF3FEF3A832983D4CF26963A
:102C70000FB6F894DEBF0FBECDBFDF91CF911F918D
:102C80000F91FF90EF90DF90CF90BF90AF909F900B
:102C90008F907F906F905F904F903F902F9008950E
:102CA000089590E080E008950E942728FB0101909C
:102CB0000020E9F73197AF01461B570BDC01ED917E
:102CC000FC910280F381E02D09948F929F92AF9244
:102CD000BF92EF92FF920F931F93CF93DF93CDB7E5
:102CE000DEB7A1970FB6F894DEBF0FBECDBF7C0153
:102CF000FA01CB0119A2223008F42AE08E010F5DFF
:102D00001F4F822E912CB12CA12CBF01A501940143
:102D10000E94C227F901CA016A300CF5605DD80132
:102D20006E938D01232B242B252B79F790E080E0E7
:102D3000109721F0BD01C7010E945616A1960FB64B
:102D4000F894DEBF0FBECDBFDF91CF911F910F91E1
:102D5000FF90EF90BF90AF909F908F900895695C27
:102D6000DECF8F929F92AF92BF92CF92DF92EF927F
:102D7000FF921F93CF93DF936B017C01B42E20E071
:102D800030E0A9010E94FD25D0E0C0E087FF0AC025
:102D90006DE287EF93E00E94F712EC01F7FAF094EE
:102DA000F7F8F09410E060E070E080E09FE31B151E
:102DB00041F020E030E040E251E40E9402261F5F33
:102DC000F6CFA70196010E9491256B017C010E941C
:102DD00074264B015C012AE0BC01A40187EF93E05B
:102DE0000E946516C80FD91F1123D1F1C501B40186
:102DF0000E94A3269B01AC01C701B6010E94902549
:102E00006B017C016EE287EF93E00E94F712C80F1E
:102E1000D91F115028F120E030E040E251E4C70111
:102E2000B6010E9455274B015C010E9474266B017C
:102E3000F12CE12C2AE0B701A60187EF93E00E9474
:102E40006516C80FD91FC701B6010E94A3269B01B2
:102E5000AC01C501B4010E9490256B017C01D9CF62
:102E6000CE01DF91CF911F91FF90EF90DF90CF9037
:102E7000BF90AF909F908F9008950F931F93CF9323
:102E8000DF93EC010E9456168C0165E571E0CE01DE
:102E90000E945616800F911FDF91CF911F910F91C5
:102EA00008951F93CF93DF9385ED8093BC008091AD
:102EB0001A0390911B03A0911C03B0911D03079668
:102EC000A11DB11D23E0B695A795979587952A95E5
:102ED000D1F72091BC0024FD03C01092620352C0C0
:102EE00040911A0350911B0360911C0370911D03C4
:102EF000452B462B472B69F30097A105B10541F0FF
:102F000025E32A95F1F700000197A109B109E1CF66
:102F100080911903C1E0C0931803882399F1D091DF
:102F2000B8001091BA008091BC008A7B8093BC00ED
:102F300060E082E00E94740560E083E00E94740516
:102F400010926203C09364031092630361E082E015
:102F50000E94740561E083E00E9474058091B900CD
:102F60008E7F8093B9008091B9008D7F8093B900E6
:102F700088E48093B80085E48093BC001093BA0085
:102F8000D093B800DF91CF911F910895CF92DF9237
:102F9000EF92FF920F931F93CF93DF93EC016A019F
:102FA0007B01C114D104E104F10439F4C12C48E4DB
:102FB000D42E48EEE42EFF24F394FE01FF96C08247
:102FC000D182E282F38281E28DAF80E28EAF3696CB
:102FD00010818FA987FD07C061E00E94E50561E0CF
:102FE0008FA90E94740561E088AD0E94E50561E04B
:102FF00088AD0E9474058DA9811182C040E052E124
:103000006AE770E0C416D506E606F70640F4769542
:103010006795579547958F5F8630A1F787E0212FF9
:103020002C702065982F9695922B99A3809581708E
:103030008AA3812F90E0B0E0A0E08BA39CA3ADA376
:10304000BEA31FB7F89480911603811127C0E0E357
:10305000F7E08491E3E0F7E09491E82FF0E0EE0FE1
:10306000FF1FE455FA4FA591B491EC91E92321F4A7
:1030700061E081E10E94740561E081E10E94E50563
:103080008CB580618CBD8CB580648CBD61E08FE0B7
:103090000E94E50561E080E10E94E505809116034C
:1030A0008F5F809316031FBF8EA987FD75C061E0F7
:1030B0000E94E50561E08EA90E94740564E670E057
:1030C00080E090E00E943B0660E08EA90E947405BB
:1030D00064E670E080E090E00E943B0661E08EA92B
:1030E0000E94740568EC70E080E090E0DF91CF9181
:1030F0001F910F91FF90EF90DF90CF900C943B06C3
:103100000FE117E0F12C8130B9F461E08AA50E944B
:10311000E50560E08AA50E94740561E08CA50E9427
:10312000E50560E08CA50E9474058BA587FDBCCFEA
:1031300060E00E94E505B8CFF8018491E82FF0E047
:10314000EE0FFF1FEF5EF84F859194912F8D38A100
:103150002817390741F461E08F2D0E94E50560E0F2
:103160008F2D0E947405F3940F5F1F4FFFE1FF1234
:10317000E3CF61E08EA50E94E50561E08EA50E9487
:1031800074058FA587FD90CF61E00E94E50561E0A1
:103190008FA50E94740588CFDF91CF911F910F9169
:1031A000FF90EF90DF90CF9008951F920F920FB68F
:1031B0000F9211248F939F938091E1009091E100F1
:1031C000937F9093E10083FF0FC01092E90091E09C
:1031D0009093EB001092EC0092E39093ED0010922C
:1031E000A60398E09093F00082FF22C093E09093B2
:1031F000E9009091F200992319F09AE39093E80086
:1032000090919203992341F0909192039150909361
:103210009203911101C05D9A9091A503992341F009
:103220009091A50391509093A503911101C0289A04
:1032300084FF18C08091E2008E7E81608093E2005E
:103240008091E1008F7E8093E100809193038E7ED8
:103250008061809393039F918F910F900FBE0F9089
:103260001F90189580FFF7CF8091E2008E7E8061DD
:103270008093E2008091E1008E7E8093E100809156
:1032800093038E7E8160E5CF1F920F920FB60F924F
:103290001124CF92DF92EF92FF920F931F932F93FF
:1032A0003F934F935F936F937F938F939F93AF93CE
:1032B000BF93EF93FF93CF93DF93CDB7DEB76C97B8
:1032C000DEBFCDBF1092E9008091E80083FF25C0EA
:1032D00068E0CE0145960E949E0482EF8093E8004C
:1032E0008D8987FF39C09091E80090FFFCCF982F1F
:1032F000907609F034C19E894F89588D2F89F88CBA
:10330000911131C0803861F5809194038093F10070
:103310001092F1008EEF8093E8006C960FB6F8944F
:10332000DEBF0FBECDBFDF91CF91FF91EF91BF9177
:10333000AF919F918F917F916F915F914F913F914D
:103340002F911F910F91FF90EF90DF90CF900F90F2
:103350000FBE0F901F9018959EEF9093E800C7CF77
:103360001092F100D5CF913059F48111D3CF413073
:10337000510581F6809194038D7F80939403CACF89
:10338000933049F48111C6CF4130510519F680912F
:1033900094038260F2CF953041F48091E80080FF81
:1033A000FCCF20682093E300B5CF963009F0A9C088
:1033B0000B8D1C8D22E01092E90010929003109268
:1033C0008F03F2122EC010928E0310928D030E9472
:1033D0006D041F8299E09983FA8291E09E8390EABE
:1033E00098879AEF998720918F0330919003275FF8
:1033F0003F4F3C832B838D831092E9001092900302
:1034000010928F0310938E0300938D0349E050E0D8
:10341000BE016F5F7F4F80E00E9447040E946D04F1
:1034200079CF10938E0300938D030E940504DC0175
:1034300012960D911C910115110509F451C1D80185
:10344000ED91FC910480F581E02DBE016B5E7F4F14
:10345000C8010995009709F03EC1F8010085118562
:10346000EACFF3E0FF120EC08F89882309F440C031
:10347000823061F440E860E18DE396E00E94DB1C5D
:10348000811148CF81E28093EB0047CF813029F44E
:1034900040E86BE081E396E0F1CF833099F70E943A
:1034A0000504DC011296ED90FC908E010F5F1F4F1A
:1034B0006801E114F10479F0D701ED91FC910680E7
:1034C000F781E02DB801C7010995080F111DF7011B
:1034D000E084F184EECFD8011C92F6010190002027
:1034E000E9F73197BF016C197D0940E0C601C6CFED
:1034F0006BE176E0FB01449150E080E80E944704D4
:1035000009CF973009F4BECF983021F481E0809341
:10351000F10000CF993009F0FDCE837009F0B2CFF1
:10352000EDE0F1E081E031E096E32191222371F0BA
:103530008093E9003093EB00DF0111972C912093E9
:10354000EC009093ED008F5F873079F78EE78093E2
:10355000EA001092EA008F898093A603DBCE8B8D60
:103560009C8D1092E9001092900310928F0390931B
:103570008E0380938D03898D811192C08E899D89E0
:10358000913A49F4813209F07DCF47E050E064E0A0
:1035900071E080E0B3CF913209F074CF833269F4E7
:1035A0008F89988DB0E0A0E0809300019093010195
:1035B000A0930201B0930301ADCE803269F48091F3
:1035C000E80082FFFCCF67E084E091E00E949E0467
:1035D0008BEF8093E8009ECE823209F09BCE8F89DC
:1035E00080930B01EEEFFFE7859194918B3F9C4D0B
:1035F00051F1E0E0F8E08091040190910501A09183
:103600000601B0910701803B9440A105B105F1F49A
:1036100080910B0180FD1AC0EE3F8AE0F80789F522
:1036200087E797E79183808380916000809391037F
:1036300088E19BE00FB6F894A895809360000FBED8
:103640009093600067CEEEEFFAE0D5CF8081918154
:103650008737974709F05ECEA89580916000886112
:10366000809360008091910380936000EE3F2AE098
:10367000F20789F08091FE0A9091FF0A918380837E
:1036800049CE808191818737980751F29093FF0A44
:103690008093FE0AC5CF1092FF0A1092FE0A3ACE1E
:1036A0000E940504DC0112960D911C910115110573
:1036B00009F4E8CED801ED91FC910190F081E02D64
:1036C000BE016B5E7F4FC8010995811123CEF801C1
:1036D00000851185EBCF181619060CF41BCED2CE3F
:1036E000F1E0FF12BECE6FE176E004CF1F920F92A1
:1036F0000FB60F9211242F933F938F939F93AF9305
:10370000BF938091950390919603A0919703B091F8
:1037100098033091880323E0230F2D3758F5019645
:10372000A11DB11D20938803809395039093960368
:10373000A0939703B09398038091890390918A0393
:10374000A0918B03B0918C030196A11DB11D8093B4
:10375000890390938A03A0938B03B0938C03BF914A
:10376000AF919F918F913F912F910F900FBE0F902E
:103770001F90189526E8230F0296A11DB11DD2CFE8
:103780001F920F920FB60F9211242F933F934F93D6
:103790005F936F937F938F939F93AF93BF93EF93B9
:1037A000FF938091B900887F803609F44AC0F0F514
:1037B000883209F4A5C018F5803109F499C0B8F42D
:1037C000882309F4F5C0883009F492C0FF91EF9185
:1037D000BF91AF919F918F917F916F915F914F9129
:1037E0003F912F910F900FBE0F901F901895883129
:1037F00009F486C0803251F78093610314C080348D
:1038000009F49BC040F48033B9F38833F9F6809310
:10381000610385ECAEC0803509F483C0883509F4B6
:1038200094C0883499F60E945117D0CF883909F492
:103830008AC038F5883729F050F4883611F080377F
:1038400029F683E0809362031092600355C08838A4
:1038500009F479C0803919F0803809F0B7CF809128
:103860006003803208F06FC0E091600381E08E0F4A
:10387000809360038091BB00F0E0E05CFC4F8083AC
:103880003BC0803B39F0D0F4803A09F477C0883AE5
:1038900009F09CCF84E08093620310923F03109262
:1038A0003E03F0E0E0E0099580913E0381110FC0F6
:1038B00081E080933E0310921E0309C0803C09F40E
:1038C000A8CF883C09F4A5CF883B09F07FCFE091D1
:1038D0003F0381E08E0F80933F03F0E0E25EFC4FF8
:1038E00080818093BB0090913F0380913E0329C06B
:1038F000809187038093BB0085EC8093BC0066CFEA
:103900009091860380918503981758F5E09186037E
:1039100081E08E0F80938603F0E0EB59FC4F8081AD
:10392000E9CFE091860381E08E0F8093860380913A
:10393000BB00F0E0EB59FC4F8083909186038091AF
:1039400085039817C8F285E8D8CFE091860381E017
:103950008E0F809386038091BB00F0E0EB59FC4F03
:1039600080838091640381115ECF81E08093630343
:1039700084EA8093BC001092620328CF85EC809388
:10398000BC001092620380916003803230F4E091B9
:103990006003F0E0E05CFC4F10826091600370E037
:1039A00080E493E0F0E0E0E00995109260030ECF30
:1039B0001092610338CFEF92FF920F931F93CF9332
:1039C000DF93F82E192FE62E042F81E0860F880F43
:1039D0000E94190483E00E941904CF2DD12FEC0E10
:1039E000FD2EF11CCE15DF05B9F007FF13C0FE0157
:1039F00084910E941904182F80E00E9419048123E9
:103A000021968111EFCFDF91CF911F910F91FF9000
:103A1000EF9008958881EDCF81E0F5CFE7EAF3E0FC
:103A20001382128288EE93E0A0E0B0E08483958355
:103A3000A683B78387E191E0918380832FEF3FEFE7
:103A400035872487A7EFB3E013961C921E92129736
:103A500040E850E015965C934E93149780EA90E00E
:103A600017969C938E93169719965C934E9318977E
:103A70001B969C938E931A9756961C9256971D965A
:103A80001C921E921C971F961C921E921E9781E0FC
:103A900055968C93559754968C93549753963C9384
:103AA0002E93529751963C932E93509757968C9302
:103AB000579758961C9258975A961C921E9259974F
:103AC000D5968C93D59789E0D6968C93D6978AE035
:103AD000D7968C93D7978EE0D8968C93D897DA9612
:103AE0001C921E92D997DC961C921E92DB97DD9653
:103AF0001C92DD97DE961C92DE971092360410928F
:103B0000370410923804109239048FE09C968C93FD
:103B10009C9780E19A968C939A978FEF9B968C93C3
:103B20009B978DE297E0FC012491E22FF0E0EE0FED
:103B3000FF1FEF5EF84F259134915E963C932E93D4
:103B40005D97E0E0F7E03491D3963C93D397EEE2B3
:103B5000F7E0E491F0E0EE0FFF1FEF5EF84F4591C4
:103B6000549194965C934E939397E1E0F7E02491FF
:103B700097962C939797EFE2F7E0E491F0E0EE0F41
:103B8000FF1FEF5EF84F4591549192965C934E93D0
:103B90009197E2E0F7E0449195964C939597E9E28E
:103BA000F7E0E491F0E0EE0FFF1FEF5EF84F659154
:103BB00074915C967C936E935B97ECEFF6E0549176
:103BC000D1965C93D197FC018491E82FF0E0EE0F41
:103BD000FF1FEC51F94F8591949190969C938E9391
:103BE0005F9799961C929997E52FE095D296EC9362
:103BF000D2973095D4963C93D497209598962C9351
:103C00009897409596964C93969710923A041092F6
:103C10003B0410923C0489E291E08D939C930895BB
:103C2000CF93DF93CDB7DEB72B970FB6F894DEBFF7
:103C30000FBECDBF789484B5826084BD84B58160A9
:103C400084BD85B5826085BD85B5816085BD809167
:103C50006E00816080936E001092810080918100DF
:103C600082608093810080918100816080938100D7
:103C700080918000816080938000809191008260BB
:103C80008093910080919100816080939100809158
:103C900090008160809390008091C1008460809347
:103CA000C1008091C10082608093C1008091C100F9
:103CB00081608093C1008091C30081608093C300C4
:103CC0008091C00082608093C0008091C2008160BA
:103CD0008093C20080917A00846080937A00809102
:103CE0007A00826080937A0080917A00816080936C
:103CF0007A0080917A00806880937A001092A603FF
:103D000010929403109293038091D7008160809366
:103D1000D70080EA8093D80089B5806189BD89B5D4
:103D2000826089BD09B400FEFDCF61E070E080E0F3
:103D300090E00E943B068091D8008F7C8061809348
:103D4000D8008091E000807F8093E0008091E100C6
:103D50008E7E8093E1008DE08093E200559A209A58
:103D60008FEF9FEF9093B4038093B30310910B01F7
:103D70006AE070E080E090E00E943B061123B1F31E
:103D80008DEC96E00E94EE0440E050E0BA0187EF2F
:103D900093E00E94C61786E896E00E943D0E89E7F0
:103DA00096E00E943D0E8EE496E00E943D0E80EC6F
:103DB0008983BE016F5F7F4F87EF93E00E94D40E2F
:103DC00072E0E72EE0923D0460E087EF93E00E940E
:103DD000440F81EC96E00E94EE0465E571E087EA0D
:103DE00093E00E9456168FB7F894809095039090B8
:103DF0009603A0909703B09098038FBF70E060E0A7
:103E000087EF93E00E94A0148FB7F8944091950338
:103E10005091960360919703709198038FBF481952
:103E2000590970E060E02AE087EA93E00E94651695
:103E300065E571E087EA93E00E94561664EF71E051
:103E400080E090E00E943B0670E060E087EF93E046
:103E50000E94A0141092040410920304109206040D
:103E6000109205040FEF1FEF10930A04009309044A
:103E70001093080400930704FF24F394F0920E04B7
:103E800068E571E087EF93E00E94561668EE73E0F4
:103E900080E090E00E943B0610920E0470E060E02B
:103EA00087EF93E00E94A014109204041092030480
:103EB0008EE190E0909306048093050480E098EFF3
:103EC00090930A0480930904909308048093070454
:103ED000F0920B04F0920C0466EC72E087EF93E032
:103EE0000E943D1780EE9FEF90930A04809309048F
:103EF0009093080480930704E0920B04E0920C0472
:103F000066EC72E087EF93E00E943D17E0EECE2E64
:103F1000E7E0DE2ED0920A04C0920904D092080491
:103F2000C092070483E080930B0480930C0466EC3A
:103F300072E087EF93E00E943D178FE190E090934D
:103F40000A0480930904909308048093070484E092
:103F500080930B0480930C0442E065E272E58AE9E9
:103F600094E40E94B1166CED75E080E090E00E9450
:103F70003B0610920404109203041092060410925F
:103F8000050470E060E087EF93E00E94A0141093B6
:103F90000A04009309041093080400930704F092A4
:103FA0000B04F0920C0466EC72E087EF93E00E9441
:103FB0003D17F0920B04F0920C04D0920A04C092C8
:103FC0000904D0920804C092070446E06AED7FE03D
:103FD00089E490E40E94B11663ED72E087EF93E00C
:103FE0000E943D1764EC72E087EF93E00E943D175A
:103FF00020E14DEE5FE564E870E087EF93E00E941A
:1040000065166DED72E087EF93E00E943D1764EC5A
:1040100072E087EF93E00E943D1710930A0400932B
:104020000904109308040093070469EE72E087EF17
:1040300093E00E943D1769EF72E087EF93E00E94E2
:104040003D178FE198EF90930A04809309049093B1
:104050000804809307042FB7F8946091950370913A
:10406000960380919703909198032FBF28EE33E039
:1040700040E050E00E94C227BA01A9012AE087EF80
:1040800093E00E94651610930A04009309041093AC
:1040900008040093070467E073E087EF93E00E9451
:1040A000561660EA7FE080E090E00E943B06409177
:1040B00001045091020457FF02C04F5F5F4F5595B6
:1040C00047956091FF037091000477FF02C06F5F16
:1040D0007F4F7595679520EE37E087EF93E00E945C
:1040E000F60864EF71E080E090E00E943B0670E02B
:1040F00060E087EF93E00E94A014D12CC12C0091C6
:104100000104109102048091FF0390910004C816ED
:10411000D906C4F40150110920EEE22EFF24FA94CE
:10412000960150E040E070E060E087EF93E00E948D
:10413000281460E070E0CB010E943B0626E0C20E2E
:10414000D11CDDCFD12CC12C8091010490910204AF
:10415000C816D906E4F42091FF03309100042150E1
:10416000310990EEE92EFF24FA94860150E040E0F8
:1041700070E060E087EF93E00E94281460E070E058
:10418000CB010E943B0636E0C30ED11CDDCF70E0B0
:1041900060E087EF93E00E94A014D12CC12C6091C5
:1041A000FF03709100040091010410910204C616EF
:1041B000D706C4F4015011096150710980EEE82E50
:1041C000FF24FA94960150E040E087EF93E00E94CC
:1041D000281460E070E0CB010E943B0646E0C40E6C
:1041E000D11CDDCFD12CC12C80910104909102040F
:1041F000C816D906E4F46091FF0370910004615081
:104200007109B0EEEB2EFF24FA94860130E020E035
:1042100050E040E087EF93E00E94281460E070E0F7
:10422000CB010E943B0656E0C50ED11CDDCF70E0ED
:1042300060E087EF93E00E94A014D12CC12C409144
:104240000104509102048091FF0390910004C8166C
:10425000D906C4F441505109A0EEEA2EFF24FA9485
:1042600010E000E0960170E060E087EF93E00E94CC
:10427000281460E070E0CB010E943B0686E0C80E87
:10428000D11CDDCFD12CC12C4091010450910204EE
:10429000C416D506E4F42091FF03309100042150A8
:1042A000310941505109F0EEEF2EFF24FA948601B6
:1042B00070E060E087EF93E00E94281460E070E017
:1042C000CB010E943B0696E0C90ED11CDDCF70E009
:1042D00060E087EF93E00E94A014D12CC12C609184
:1042E000FF03709100044091010450910204C6162E
:1042F000D706C4F44150510961507109E0EEEE2E29
:10430000FF24FA9410E000E0960187EF93E00E940A
:10431000281460E070E0CB010E943B0626E0C20E4C
:10432000D11CDDCFD12CC12C40910104509102044D
:10433000C416D506E4F4415051096091FF03709111
:1043400000046150710930EEE32EFF24FA948601D7
:1043500030E020E087EF93E00E94281460E070E0F6
:10436000CB010E943B0636E0C30ED11CDDCF64EFCB
:1043700071E080E090E00E943B0670E060E087EF33
:1043800093E00E94A014F12CE12C2091FF033091C6
:1043900000048091010490910204E816F9066CF47F
:1043A00000E018EFA70170E060E087EF93E00E9463
:1043B000620A45E0E40EF11CE8CFF12CE12C80917B
:1043C000FF0390910004E816F9068CF42091010493
:1043D000309102040FE110E050E040E0B70187EFB8
:1043E00093E00E94F10955E0E50EF11CE8CF64EF7F
:1043F00071E080E090E00E943B0670E060E087EFB3
:1044000093E00E94A014D12CC12C8091FF039091C5
:104410000004C816D90644F5B601D7FE02C06F5F86
:104420007F4F75956795719561957109409101046C
:104430005091020457FF02C04F5F5F4F559547955B
:10444000460F571F95958795680F791F00EEE02E50
:1044500007E0F02E8601960187EF93E00E94C913D2
:1044600086E0C80ED11CD1CF64EF71E080E090E00F
:104470000E943B0670E060E087EF93E00E94A0148A
:10448000C090FF03D090000491E0C91AD10827E042
:10449000C216D1040CF453C05601D7FE03C03FEF3F
:1044A000A31AB30AB594A794B194A194B10840910A
:1044B00001045091020457FF02C04F5F5F4F5595B2
:1044C00047954A0D5B1D6091FF037091000477FFD3
:1044D00002C06F5F7F4F759567956A0D7B1DE0EE9B
:1044E000EE2EFF24FA948601960187EF93E00E9456
:1044F000D30A409101045091020457FF02C04F5F5C
:104500005F4F559547954A0D5B1D6091FF03709174
:10451000000477FF02C06F5F7F4F759567956A0D46
:104520007B1D9FE1E92E98EFF92E8601960187EF1A
:1045300093E00E94C91346E0C41AD108A8CF64EFE3
:1045400071E080E090E00E943B0670E060E087EF61
:1045500093E00E94A0140AE0C02ED12C8091FF03AA
:1045600090910004C816D90694F51AE0A12EB12C3A
:104570008091010490910204A816B90624F587EFF2
:1045800093E00E942B0EA5014A5051090FE110E063
:1045900025E130E0B60187EF93E00E945F0BBFE1B9
:1045A000EB2EF12C10E000E023E04AE050E0B501F2
:1045B000C6010E94A00B87EF93E00E94DA0F54E13E
:1045C000A50EB11CD5CF84E1C80ED11CC7CF26EFF4
:1045D0003FEF398728874AE050E05F834E83F12C14
:1045E000E12C8091FF03909100040A96E816F906E9
:1045F0000CF0D0C010E000E0809101049091020422
:104600000A96081719070CF0B5C087EF93E00E94CF
:104610002B0E2FEF3FEFA801465F5F4FB70187EFEB
:1046200093E00E94240D2FEF3FEFA8014A5051095B
:10463000B70187EF93E00E94240D2FEF3FEFA80111
:104640006E817F8187EF93E00E94240D2FEF3FEF73
:10465000A8016885798587EF93E00E94240DB12C2D
:10466000A12C81E090E09B878A87FAE0CF2ED12CA5
:104670002CEE3FEF3B832A83A7EF6A2E77247A94B0
:104680005FEFA51AB50A8A859B8502969B878A8764
:10469000680E791E25014E0C5F1C2FEF3FEF48017D
:1046A0008C0C9D1CA401B20187EF93E00E94240DA5
:1046B00017012A183B082FEF3FEFA401B10187EF44
:1046C00093E00E94240D2FEF3FEF48018C189D08C6
:1046D000A401B20187EF93E00E94240D2FEF3FEF7A
:1046E000A401B10187EF93E00E94240D4501800EE3
:1046F000911E2FEF3FEFA40127014C0C5D1CB2016E
:1047000087EF93E00E94240D2FEF3FEFA4011701E4
:104710002C183D08B10187EF93E00E94240D480159
:104720008A189B082FEF3FEFA401B20187EF93E0B7
:104730000E94240D2FEF3FEFA401B10187EF93E01A
:104740000E94240DAC14BD043CF087EF93E00E945E
:10475000DA0F0C5E1F4F50CF77FC92CF31E0C31AB7
:10476000D1084A815B814E5F5F4F5B834A83640E51
:10477000751E86CF94E1E90EF11C2E813F812C5EDF
:104780003F4F3F832E83488559854C5E5F4F598745
:10479000488727CF64EF71E080E090E00E943B06FD
:1047A00070E060E087EF93E00E94A01484E690E060
:1047B0009B878A878091FF03909100045C0122E02F
:1047C000A21AB1082091010430910204290142E0AB
:1047D000441A5108A901435051095B834A839C0143
:1047E000235031093F832E83CA84DB8419861886BF
:1047F000312C212CA414B5040CF08BC17501B7FE2B
:1048000003C03FEFE31AF30AF594E79455E0E51689
:10481000F1041CF075E0E72EF12C87EF93E00E9485
:104820002B0E4701880C991C350168187908C701BF
:10483000820D931D9D838C83860193014885598544
:10484000BC0187EF93E00E947B0C93014A815B815E
:104850006C817D8187EF93E00E947B0C32016818A8
:104860007908888499848E0C9F1C9301A401B1015E
:1048700087EF93E00E945F0B9301A4016E817F811B
:1048800087EF93E00E945F0B21E0A701B4018C81C8
:104890009D810E94560D6E807F806E187F0822E0F9
:1048A000A701B401C3010E94560D8A809B808E1817
:1048B0009F0824E0A701B401C3010E94560D28E01F
:1048C000A701B4018C819D810E94560D87EF93E072
:1048D0000E94DA0F92E0290E311C288539852D5F60
:1048E0003F4F3987288734E0A31AB10846E0441ABD
:1048F000510854EBC51A5BEFD50A8A819B81039757
:104900009B838A832E813F81225031093F832E83EE
:1049100032E22316310409F06DCF4A855B85405998
:10492000564B5B874A8744395F4609F043CF64EFB3
:1049300071E080E090E00E943B0670E060E087EF6D
:1049400093E00E94A0142090FF0330900004C10166
:1049500037FC01969C01359527953F832E838090E7
:10496000010490900204412C58EF552ED12CC12CFB
:1049700031E0831A910831016C187D085401AC189C
:10498000BD08720185019601A6016E817F8187EFC6
:1049900093E00E9428149301A501B60187EF93E0EC
:1049A0000E94281486012E813F81A501B30187EF63
:1049B00093E00E94281444E0C40ED11C54E6450E36
:1049C000511C80E4C816D104B1F664EF71E080E0B8
:1049D00090E00E943B0670E060E087EF93E00E9469
:1049E000A014EE24EA94FE2C08E010E02CE330E062
:1049F0004EE450E06AE070E089E190E00E945010DF
:104A000080E098EF0E94E50F64EF71E080E090E0B5
:104A10000E943B062CE330E04EE450E06AE570E093
:104A200089E190E00E94501090EEE92E97E0F92E77
:104A300005E010E02DE230E044E150E062E670E095
:104A400087E290E00E9450102DE230E044E150E017
:104A500062E670E085E490E00E94501064EF71E03F
:104A600080E090E00E943B068FE190E00E94E50F1D
:104A700062E370E080E090E00E943B06E12C28EFCA
:104A8000F22E2DE230E044E150E062E670E087E291
:104A900090E00E9450102DE230E044E150E062E6E8
:104AA00070E085E490E00E94501080EE97E00E9454
:104AB000E50F64EF71E080E090E00E943B0661E169
:104AC00073E087EA93E00E943D1768EE73E080E0B0
:104AD00090E00E943B0600E010E061E087EF93E089
:104AE0000E94D90864EF71E080E090E00E943B06EC
:104AF00060E087EF93E00E94D90864EF71E080E006
:104B000090E00E943B060115110539F30E94000058
:104B1000E4CF720157FE78CE4FEFE41AF40A74CE58
:104B20005058BB27AA270E94A8250C941B270E9437
:104B30000D2738F00E94142720F039F49F3F19F414
:104B400026F40C940A270EF4E095E7FB0C94042756
:104B5000E92F0E942C2758F3BA17620773078407BE
:104B6000950720F079F4A6F50C944E270EF4E09505
:104B70000B2EBA2FA02D0B01B90190010C01CA0117
:104B8000A0011124FF27591B99F0593F50F4503EC2
:104B900068F11A16F040A22F232F342F4427585FB4
:104BA000F3CF469537952795A795F0405395C9F7CC
:104BB0007EF41F16BA0B620B730B840BBAF0915084
:104BC000A1F0FF0FBB1F661F771F881FC2F70EC023
:104BD000BA0F621F731F841F48F4879577956795F6
:104BE000B795F7959E3F08F0B0CF9395880F08F0E2
:104BF0009927EE0F9795879508950E94E02608F46F
:104C000081E008950E9416260C941B270E94142709
:104C100058F00E940D2740F029F45F3F29F00C94D2
:104C2000042751110C944F270C940A270E942C271B
:104C300068F39923B1F3552391F3951B550BBB27CB
:104C4000AA2762177307840738F09F5F5F4F220F10
:104C5000331F441FAA1FA9F335D00E2E3AF0E0E807
:104C600032D091505040E695001CCAF72BD0FE2F51
:104C700029D0660F771F881FBB1F261737074807E5
:104C8000AB07B0E809F0BB0B802DBF01FF2793589D
:104C90005F4F3AF09E3F510578F00C9404270C9436
:104CA0004F275F3FE4F3983ED4F386957795679559
:104CB000B795F7959F5FC9F7880F911D96958795D2
:104CC00097F90895E1E0660F771F881FBB1F6217F1
:104CD00073078407BA0720F0621B730B840BBA0BAF
:104CE000EE1F88F7E09508950E94342788F09F57BB
:104CF00098F0B92F9927B751B0F0E1F0660F771F00
:104D0000881F991F1AF0BA95C9F714C0B13091F0F5
:104D10000E944E27B1E008950C944E27672F782FFC
:104D20008827B85F39F0B93FCCF3869577956795BA
:104D3000B395D9F73EF490958095709561957F4F26
:104D40008F4F9F4F0895E89409C097FB3EF49095CC
:104D50008095709561957F4F8F4F9F4F9923A9F054
:104D6000F92F96E9BB279395F695879577956795E3
:104D7000B795F111F8CFFAF4BB0F11F460FF1BC027
:104D80006F5F7F4F8F4F9F4F16C0882311F096E9BA
:104D900011C0772321F09EE8872F762F05C0662368
:104DA00071F096E8862F70E060E02AF09A95660F21
:104DB000771F881FDAF7880F9695879597F90895DA
:104DC000990F0008550FAA0BE0E8FEEF161617061C
:104DD000E807F907C0F012161306E407F50798F084
:104DE000621B730B840B950B39F40A2661F0232B9D
:104DF000242B252B21F408950A2609F4A140A69519
:104E00008FEF811D811D089597F99F6780E870E0FD
:104E100060E008959FEF80EC089500240A94161630
:104E2000170618060906089500240A941216130698
:104E3000140605060895092E0394000C11F4882326
:104E400052F0BB0F40F4BF2B11F460FF04C06F5F42
:104E50007F4F8F4F9F4F089557FD9058440F551F18
:104E600059F05F3F71F04795880F97FB991F61F0EC
:104E70009F3F79F087950895121613061406551F63
:104E8000F2CF4695F1DF08C0161617061806991FCF
:104E9000F1CF86957105610508940895E894BB27C4
:104EA00066277727CB0197F908950E9468270C940D
:104EB0001B270E940D2738F00E94142720F095230D
:104EC00011F00C9404270C940A2711240C944F27FA
:104ED0000E942C2770F3959FC1F3950F50E0551F4A
:104EE000629FF001729FBB27F00DB11D639FAA273F
:104EF000F00DB11DAA1F649F6627B00DA11D661F8E
:104F0000829F2227B00DA11D621F739FB00DA11DAE
:104F1000621F839FA00D611D221F749F3327A00D68
:104F2000611D231F849F600D211D822F762F6A2F04
:104F300011249F5750409AF0F1F088234AF0EE0F69
:104F4000FF1FBB1F661F771F881F91505040A9F796
:104F50009E3F510580F00C9404270C944F275F3F2F
:104F6000E4F3983ED4F3869577956795B795F795D2
:104F7000E7959F5FC1F7FE2B880F911D969587954A
:104F800097F90895A1E21A2EAA1BBB1BFD010DC0C3
:104F9000AA1FBB1FEE1FFF1FA217B307E407F507E9
:104FA00020F0A21BB30BE40BF50B661F771F881FC5
:104FB000991F1A9469F760957095809590959B015B
:104FC000AC01BD01CF010895052E97FB1EF400949E
:104FD0000E94FB2757FD07D00E94C22707FC03D081
:104FE0004EF40C94FB2750954095309521953F4FFA
:104FF0004F4F5F4F089590958095709561957F4FC5
:105000008F4F9F4F0895EE0FFF1F0590F491E02DF5
:1050100009940E941128332312F48A1B9B0B0C94D1
:105020002228A29FB001B39FC001A39F700D811DD4
:105030001124911DB29F700D811D1124911D0895A1
:105040000E941128B7FF0895821B930B089581E0F9
:0C50500090E0F8940C942C28F894FFCF0A
:10505C00FFFFFFFF00E100000000000000C18081A5
:10506C0000000000000000D8046E06140509055A63
:10507C00051805360500000000F712AB0451165058
:10508C0016F6082B0E240DBB0C5F0B7B0CA315DA4C
:10509C000F440FD908F109620AD30AA0142814C9C5
:1050AC0013C61777080D0A004C6F72656D20697076
:1050BC0073756D20646F6C6F722073697420616DF1
:1050CC0065742C20636F6E736563746574757220E0
:1050DC0061646970697363696E6720656C69742EAD
:1050EC0020437572616269747572206164697069BC
:1050FC007363696E6720616E746520736564206EDE
:10510C006962682074696E636964756E7420666583
:10511C0075676961742E204D616563656E617320DE
:10512C00656E696D206D617373612C206672696E9A
:10513C0067696C6C6120736564206D616C65737557
:10514C006164612065742C206D616C65737561649C
:10515C00612073697420616D657420747572706957
:10516C00732E2053656420706F72747469746F723F
:10517C00206E6571756520757420616E7465207084
:10518C0072657469756D207669746165206D616CEA
:10519C00657375616461206E756E6320626962650A
:1051AC006E64756D2E204E756C6C616D20616C6932
:1051BC007175657420756C747269636573206D61AB
:1051CC007373612065752068656E647265726974AD
:1051DC002E20557420736564206E697369206C6F82
:1051EC0072656D2E20496E20766573746962756CDC
:1051FC00756D207075727573206120746F72746F89
:10520C007220696D7065726469657420706F737556
:10521C006572652E200048656C6C6F20576F726C40
:10522C006421002057616E742070693F0020507219
:10523C00696E74204845582100536B65746368206F
:10524C00686173206265656E0072756E6E696E675B
:10525C0020666F723A2000207365636F6E64732E44
:06526C0000646F6E650096
:00000001FF
