:100000000C945D000C9485000C9485000C94850084
:100010000C9485000C9485000C9485000C9485004C
:100020000C9485000C9485000C9485000C9485003C
:100030000C9485000C9485000C9485000C9485002C
:100040000C94D8020C9485000C94A6020C948002A7
:100050000C9485000C9485000C9485000C9485000C
:100060000C9485000C94850000000008000201003B
:100070000003040700000000000000000000000072
:10008000250028002B0000000000240027002A0083
:10009000040404040404040402020202020203032E
:1000A0000303030301020408102040800102040836
:1000B0001020010204081020680411241FBECFEF95
:1000C000D8E0DEBFCDBF11E0A0E0B1E0E8E4FBE0A6
:1000D00002C005900D92A032B107D9F721E0A0E24D
:1000E000B1E001C01D92A63CB207E1F710E0CDE5FA
:1000F000D0E004C02197FE010E949C05CC35D107B9
:10010000C9F70E9422030C94A2050C94000090E011
:10011000FC01EC55FF4F249180579F4FFC018491C7
:10012000882399F090E0880F991FFC01EA57FF4F50
:10013000A591B491FC01E458FF4F859194918FB73C
:10014000F894EC91E22BEC938FBF0895AF92BF929D
:10015000CF92DF92EF92FF920F931F93CF93DF9393
:100160006C017B018B01040F151FEB015E01AE18C2
:10017000BF08C017D10759F06991D601ED91FC91E4
:100180000190F081E02DC6010995892B79F7C50111
:10019000DF91CF911F910F91FF90EF90DF90CF9063
:1001A000BF90AF900895FC01538D448D252F30E012
:1001B000842F90E0821B930B541710F0CF96089574
:1001C00001970895FC01918D828D981761F0A28DA1
:1001D000AE0FBF2FB11D5D968C91928D9F5F9F7367
:1001E000928F90E008958FEF9FEF0895FC01918D1D
:1001F000828D981731F0828DE80FF11D858D90E08A
:1002000008958FEF9FEF0895FC01918D228D892F26
:1002100090E0805C9F4F821B91098F73992708950E
:1002200089E291E00E94040121E0892B09F420E099
:10023000822F089580E090E0892B29F00E94100120
:1002400081110C9400000895FC01A48DA80FB92F12
:10025000B11DA35ABF4F2C91848D90E001968F73EE
:100260009927848FA689B7892C93A089B1898C910D
:10027000837080648C93938D848D981306C002885C
:10028000F389E02D80818F7D80830895EF92FF9226
:100290000F931F93CF93DF93EC0181E0888F9B8DA9
:1002A0008C8D98131AC0E889F989808185FF15C063
:1002B0009FB7F894EE89FF896083E889F989808186
:1002C0008370806480839FBF81E090E0DF91CF9155
:1002D0001F910F91FF90EF900895F62E0B8D10E077
:1002E0000F5F1F4F0F731127E02E8C8D8E110CC0E6
:1002F0000FB607FCFACFE889F989808185FFF5CF31
:10030000CE010E942401F1CFEB8DEC0FFD2FF11DEA
:10031000E35AFF4FF0829FB7F8940B8FEA89FB896D
:1003200080818062CFCFCF93DF93EC01888D8823CB
:10033000B9F0AA89BB89E889F9898C9185FD03C048
:10034000808186FD0DC00FB607FCF7CF8C9185FF2D
:10035000F2CF808185FFEDCFCE010E942401E9CF4D
:10036000DF91CF91089590E0FC01E859FF4F24916F
:10037000FC01EC55FF4F3491FC01E057FF4FE49135
:10038000EE23C9F0222339F0233001F1A8F4213003
:1003900019F1223029F1F0E0EE0FFF1FE458FF4F72
:1003A000A591B4918FB7F894EC91611126C0309566
:1003B0003E233C938FBF08952730A9F02830C9F021
:1003C000243049F7809180008F7D03C080918000A8
:1003D0008F7780938000DFCF84B58F7784BDDBCFAC
:1003E00084B58F7DFBCF8091B0008F778093B00074
:1003F000D2CF8091B0008F7DF9CF3E2BDACF1F9303
:10040000CF93DF93182FEB010E948700209739F4D8
:1004100060E0812FDF91CF911F910C94B301CF3F0A
:10042000D10511F461E0F5CFE12FF0E0E859FF4F7D
:10043000E491E33031F140F4E130B1F0E230E1F049
:10044000C038D1057CF7E4CFE73029F1E83059F125
:10045000E430B1F780918000806280938000D09377
:100460008B00C0938A0004C084B5806884BDC7BD7A
:10047000DF91CF911F91089584B5806284BDC8BD7E
:10048000F7CF80918000806880938000D0938900AE
:10049000C0938800EDCF8091B00080688093B00059
:1004A000C093B300E5CF8091B00080628093B0002C
:1004B000C093B400DDCF3FB7F894809125019091AF
:1004C0002601A0912701B091280126B5A89B05C05F
:1004D0002F3F19F00196A11DB11D3FBFBA2FA92FC3
:1004E000982F8827BC01CD01620F711D811D911DC0
:1004F00042E0660F771F881F991F4A95D1F708952C
:100500001F920F920FB60F9211242F933F934F9388
:100510005F936F937F938F939F93AF93BF93EF936B
:10052000FF9389E291E00E942401FF91EF91BF9136
:10053000AF919F918F917F916F915F914F913F917B
:100540002F910F900FBE0F901F9018951F920F9232
:100550000FB60F9211242F938F939F93EF93FF93D6
:10056000E0913901F0913A018081E0913F01F091F1
:10057000400182FD1BC09081809142018F5F8F738B
:1005800020914301821741F0E0914201F0E0E75DE4
:10059000FE4F958F80934201FF91EF919F918F9134
:1005A0002F910F900FBE0F901F9018958081F4CF60
:1005B0001F920F920FB60F9211242F933F938F9398
:1005C0009F93AF93BF938091210190912201A091BD
:1005D0002301B09124013091200123E0230F2D3716
:1005E00058F50196A11DB11D209320018093210192
:1005F00090932201A0932301B093240180912501BF
:1006000090912601A0912701B09128010196A11D8A
:10061000B11D8093250190932601A0932701B093EB
:100620002801BF91AF919F918F913F912F910F9092
:100630000FBE0F901F90189526E8230F0296A11D5C
:10064000B11DD2CFCF93DF93CDB7DEB7A1970FB651
:10065000F894DEBF0FBECDBF789484B5826084BDB0
:1006600084B5816084BD85B5826085BD85B58160B6
:1006700085BD80916E00816080936E001092810034
:1006800080918100826080938100809181008160EF
:1006900080938100809180008160809380008091B0
:1006A000B10084608093B1008091B000816080933C
:1006B000B00080917A00846080937A0080917A0003
:1006C000826080937A0080917A00816080937A00C2
:1006D00080917A00806880937A001092C100E09146
:1006E0003901F0913A0182E08083E0913501F09187
:1006F00036011082E0913701F091380180E180836A
:1007000010924101E0913D01F0913E0186E080832D
:10071000E0913B01F0913C01808180618083E09118
:100720003B01F0913C01808188608083E0913B0136
:10073000F0913C01808180688083E0913B01F091E1
:100740003C0180818F7D80833CE1C32E31E0D32E3C
:1007500006E111E04AE0842E912CA12CB12CF80185
:10076000F1908F018F2D0E94870061E08F2D0E94F4
:10077000B3012F2D30E050E040E019A27E01F1E2FC
:10078000EF0EF11CCA01B901A50194010E946B058D
:10079000605DF70162937F01211531054105510527
:1007A00089F7309761F001900020E9F73197AF01A8
:1007B0004E195F09B70189E291E00E94A60042E06C
:1007C00050E06CE171E089E291E00E94A600C01661
:1007D000D10629F680E480937C0080917A008064C1
:1007E00080937A0080917A0086FDFCCF809178001A
:1007F00060917900762F682F072E000C880B990BDB
:10080000611571058105910511F00E9430059EE189
:10081000492E512C612C712C20E0222E20E0322E0A
:1008200086E1C82E81E0D82EF601F1906F010E947A
:10083000E1042FEF30E040E050E00E9439058F2DB9
:100840000E94FF01C016D10679F70E94E1042FE350
:1008500030E040E050E00E9439058BE00E94FF014B
:100860000E94E104A30192010E9439056B017C0101
:10087000F8E2CF0ED11CE11CF11C0E945B024B017F
:100880005C010E945B02681979098A099B09683E2C
:10089000734081059105A8F321E0C21AD108E1084F
:1008A000F10888EE880E83E0981EA11CB11CC114CB
:1008B000D104E104F10429F72114310409F4B0CF83
:1008C0000E941001882309F4ABCF0E940000A8CF3A
:1008D000E9E2F1E01382128288EE93E0A0E0B0E05A
:1008E00084839583A683B78388E091E09183808396
:1008F00085EC90E09587848784EC90E097878687E5
:1009000080EC90E0918B808B81EC90E0938B828BDC
:1009100082EC90E0958B848B86EC90E0978B868BB5
:10092000118E128E138E148E08958F929F92AF9215
:10093000BF92CF92DF92EF92FF92CF93DF93EC01C1
:10094000688179818A819B81611571058105910595
:1009500021F464E279ED8BE597E02DE133EF41E09E
:1009600050E00E94390549015A019B01AC01A7EAF8
:10097000B1E40E9458056B017C01ACEEB4EFA50117
:1009800094010E946605C60ED71EE81EF91EF7FEEA
:1009900006C081E0C81AD108E10880E8F80AC882D8
:1009A000D982EA82FB82C701B6019F77DF91CF919E
:1009B000FF90EF90DF90CF90BF90AF909F908F907F
:1009C00008958F929F92AF92BF92CF92DF92EF9253
:1009D000FF9260910001709101018091020190915C
:1009E0000301611571058105910521F464E279ED3A
:1009F0008BE597E02DE133EF41E050E00E943905AF
:100A000049015A019B01AC01A7EAB1E40E945805D3
:100A10006B017C01ACEEB4EFA50194010E94660568
:100A2000C60ED71EE81EF91EF7FE06C081E0C81AE2
:100A3000D108E10880E8F80AC0920001D0920101D3
:100A4000E0920201F0920301C701B6019F77FF9087
:100A5000EF90DF90CF90BF90AF909F908F900895D0
:100A60006093000170930101809302019093030150
:100A70000895052E97FB1EF400940E94500557FD23
:100A800007D00E946B0507FC03D04EF40C94500570
:100A900050954095309521953F4F4F4F5F4F0895AA
:100AA00090958095709561957F4F8F4F9F4F0895DA
:100AB0000E948D05A59F900DB49F900DA49F800D61
:100AC000911D11240895B7FF0C9458050E945805F4
:100AD000821B930B0895A1E21A2EAA1BBB1BFD01DA
:100AE0000DC0AA1FBB1FEE1FFF1FA217B307E4070D
:100AF000F50720F0A21BB30BE40BF50B661F771F65
:100B0000881F991F1A9469F7609570958095909544
:100B10009B01AC01BD01CF010895A29FB001B39F1D
:100B2000C001A39F700D811D1124911DB29F700DF6
:100B3000811D1124911D0895EE0FFF1F0590F49162
:080B4000E02D0994F894FFCFA9
:100B480001000000000000004601A600D300930148
:100B58000401E200F600030506090A0B0D0A00006D
:107E0000112484B714BE81FFF0D085E080938100F7
:107E100082E08093C00088E18093C10086E0809377
:107E2000C20080E18093C4008EE0C9D0259A86E02C
:107E300020E33CEF91E0309385002093840096BBD3
:107E4000B09BFECF1D9AA8958150A9F7CC24DD24C4
:107E500088248394B5E0AB2EA1E19A2EF3E0BF2EE7
:107E6000A2D0813461F49FD0082FAFD0023811F036
:107E7000013811F484E001C083E08DD089C08234E0
:107E800011F484E103C0853419F485E0A6D080C0E4
:107E9000853579F488D0E82EFF2485D0082F10E0AE
:107EA000102F00270E291F29000F111F8ED06801E7
:107EB0006FC0863521F484E090D080E0DECF843638
:107EC00009F040C070D06FD0082F6DD080E0C81688
:107ED00080E7D80618F4F601B7BEE895C0E0D1E017
:107EE00062D089930C17E1F7F0E0CF16F0E7DF06D8
:107EF00018F0F601B7BEE89568D007B600FCFDCFD4
:107F0000A601A0E0B1E02C9130E011968C91119780
:107F100090E0982F8827822B932B1296FA010C0160
:107F200087BEE89511244E5F5F4FF1E0A038BF0790
:107F300051F7F601A7BEE89507B600FCFDCF97BE46
:107F4000E89526C08437B1F42ED02DD0F82E2BD052
:107F50003CD0F601EF2C8F010F5F1F4F84911BD097
:107F6000EA94F801C1F70894C11CD11CFA94CF0C13
:107F7000D11C0EC0853739F428D08EE10CD085E9AC
:107F80000AD08FE07ACF813511F488E018D01DD067
:107F900080E101D065CF982F8091C00085FFFCCF94
:107FA0009093C60008958091C00087FFFCCF809118
:107FB000C00084FD01C0A8958091C6000895E0E648
:107FC000F0E098E1908380830895EDDF803219F02E
:107FD00088E0F5DFFFCF84E1DECF1F93182FE3DFCA
:107FE0001150E9F7F2DF1F91089580E0E8DFEE27F6
:047FF000FF270994CA
:027FFE00040479
:0400000300007E007B
:00000001FF
